00) MP Plus         6400C8002C01F401000000000F 20090A141E2832
01) HP Plus         6400C8002C01F401000000000F 20080A141E2832
02) Speed Plus      96002C015802E803000000000F 20040A141E2832
03) Magic Plus      6400C8002C01F401000000000F 20020A141E2832
04) Luck Plus       96002C015802E803000000000F 20050A141E2832
05) EXP Plus        5802DC05FFFFFFFF070000000F 400A1820FFFFFF
06) Gil Plus        2003DC05FFFFFFFF070000000F 41001820FFFFFF
07) Enemy Away      6400F401FFFFFFFF070000000F 4101070EFFFFFF
08) Enemy Lure      6400F401FFFFFFFF080000000F 4101070EFFFFFF
09) Chocobo Lure    1E0064002C01FFFF070000000F 4102080C10FFFF
0a) Pre Emptive     5000C800900120030A0000000F 210310161C2230
0b) Long Range      2003FFFFFFFFFFFF000000000F 3050FFFFFFFFFF
0c) Mega All        C800900120034006000000000F 34510102030405
0d) Counter Attack  6400C800F401E803000000000F 20531E283C5064
0e) Slash All       1405DC05FFFFFFFF000000000F 12181AFFFFFFFF
0f) Double Cut      E803DC05FFFFFFFF0A0000000F 12191BFFFFFFFF
10) Cover           14006400FA009001060000000F 200B14283C5064
11) Underwater      FFFFFFFFFFFFFFFF000000000F 000CFFFFFFFFFF
12) HP<->MP         2003FFFFFFFFFFFF000000000F 0062FFFFFFFFFF
13) W-Magic         C409FFFFFFFFFFFF000000000F 3315FFFFFFFFFF
14) W-Summon        C409FFFFFFFFFFFF000000000F 3316FFFFFFFFFF
15) W-Item          C409FFFFFFFFFFFF000000000F 3317FFFFFFFFFF
16)                 FFFFFFFFFFFFFFFF000000000F 25FFFFFFFFFFFF
17) All             0F003C00B4005E01000000000F 35510102030405
18) Counter         C80090015802E803000000000F 25541E283C5064
19) Magic Counter   C80090012003B80B000000000F 25551E283C5064
1a) MP Turbo        64002C015802B004000000000F 25580A141E2832
1b) HP Absorb       E803FFFFFFFFFFFF000000000F 255901FFFFFFFF
1c) MP Absorb       E803FFFFFFFFFFFF000000000F 255A01FFFFFFFF
1d) Elemental       640090012003FFFF000000000F 255E000102FFFF
1e) Added Effect    E803FFFFFFFFFFFF000000000F 255F01FFFFFFFF
1f) Sneak Attack    C8005802E803DC05000000000F 25561423324150
20) Final Attack    C800900120034006000000000F 35570102030405
21) Added Cut       D007FFFFFFFFFFFF000000000F 255C01FFFFFFFF
22) Steal As Well   D007FFFFFFFFFFFF000000000F 255D01FFFFFFFF
23) Quadra Magic    90012003B004D007000000000F 35630102030405
24) Steal           9001F401FFFFFFFF0A0000000F 160511FFFFFFFF
25) Sense           9001FFFFFFFFFFFF000000000F 1606FFFFFFFFFF
26)                 C800FFFFFFFFFFFF000000000F 1607FFFFFFFFFF
27) Throw           C2015802FFFFFFFF060000000F 160807FFFFFFFF
28) Morph           E803FFFFFFFFFFFF000000000F 1609FFFFFFFFFF
29) Deathblow       9001FFFFFFFFFFFF070000000F 160AFFFFFFFFFF
2a) Manipulate      9001FFFFFFFFFFFF000000000F 160BFFFFFFFFFF
2b) Mime            E803FFFFFFFFFFFF000000000F 160CFFFFFFFFFF
2c) Enemy Skill     FFFFFFFFFFFFFFFF000000000F 570DFFFFFFFFFF
2d)                 FFFFFFFFFFFFFFFFFFFFFFFFFF FFFFFFFFFFFFFF
2e)                 FFFFFFFFFFFFFFFFFFFFFFFFFF FFFFFFFFFFFFFF
2f)                 FFFFFFFFFFFFFFFFFFFFFFFFFF FFFFFFFFFFFFFF
30) Master Command  FFFFFFFFFFFFFFFF000000000F 08FFFFFFFFFFFF
31) Fire            1400B4005E01FFFF0B00000000 191B1C1DFFFFFF
32) Ice             1400B4005E01FFFF0B00000001 191E1F20FFFFFF
33) Earth           3C00DC009001FFFF0B00000003 19242526FFFFFF
34) Lighting        1400B4005E01FFFF0B00000002 19212223FFFFFF
35) Restore         1900AA00FA0090010B0000000F 1900010302FFFF
36) Heal            780008025802FFFF0B0000000F 19040506FFFFFF
37) Revive          C2012602FFFFFFFF010000000F 190708FFFFFFFF
38) Seal            6400C800FFFFFFFF0B8400000F 190B0DFFFFFFFF
39) Mystify         7800FA00FFFFFFFF0B4000800F 190C0EFFFFFFFF
3a) Transform       5000F000FFFFFFFF0B0018000F 19090AFFFFFFFF
3b) Exit            64002C01FFFFFFFF0B0000000F 19191AFFFFFFFF
3c) Poison          3200C8007C01FFFF0B08000004 19272829FFFFFF
3d) Gravity         6400C8009001FFFF0B00000005 192A2B2CFFFFFF
3e) Barrier         320096002C01C201010000000F 190F101112FFFF
3f)                 FFFFFFFFFFFFFFFF010000000F 19101010FFFFFF
40) Comet           78005802FFFFFFFF010000000F 192D2EFFFFFFFF
41) Time            5000C800A401FFFF010006000F 19131415FFFFFF
42)                 FFFFFFFFFFFFFFFF000000000F 19FFFFFFFFFFFF
43)                 FFFFFFFFFFFFFFFF000000000F 19FFFFFFFFFFFF
44) Destruct        3C006400C201FFFF010100000F 19161718FFFFFF
45) Contain         3200640096005802024044000F 192F303132FFFF
46) Full Cure       1E00E803FFFFFFFF020000000F 19FF33FFFFFFFF
47) Shield          6400E803FFFFFFFF020000000F 19FF35FFFFFFFF
48) Ultima          3200E803FFFFFFFF020000000F 19FF34FFFFFFFF
49) Master Magic    FFFFFFFFFFFFFFFF000000000F 0AFFFFFFFFFFFF
4a) Choco Mog       14008C00FA005E010C00040007 3B380102030405
4b) Shiva           280096002C01F4010C00000001 3B390102030405
4c) Ifrit           3200C8005E0158020C00000000 3B3A0102030405
4d) Ramuh           6400FA00F401BC020C00000002 3B3B0102030405
4e) Titan           96002C01580220030C00000003 3B3C0102030405
4f) Odin            A00040018A0284030D0100000F 3B3D0102030405
50) Leviathan       B4007C01BC02E8030D00000006 3B3E0102030405
51) Bahamut         C800F4012003B0040D0000000F 3B3F0102030405
52) Kjata           DC005802840378050D0000000F 3B400102030405
53) Alexander       FA008A02E803DC050D00000008 3B410102030405
54) Phoenix         1801BC02B00408070E00000000 3B420102030405
55) Neo Bahamut     2C0120037805D0070E0000000F 3B430102030405
56) Hades           5E01B004DC05C4090FCC18000F 3B440102030405
57) Typoon          5E01B004DC05C4090F00000007 3B450102030405
58) Bahamut ZERO    5E01B004DC05C4090F0000000F 3B460102030405
59) Knights of RoundF401D007B80B8813100000000F 3B470102030405
5a) Master Summon   FFFFFFFFFFFFFFFF000000000F 0CFFFFFFFFFFFF